:020000040800F2
:10000000A00B0020CD010008CF0400088B020008DF
:10001000CB0400087D020008710A000800000000FF
:100020000000000000000000000000006F05000854
:100030008102000800000000D104000859060008F1
:10004000E7010008E7010008E7010008E7010008F0
:10005000E7010008E7010008E7010008E7010008E0
:10006000E7010008E7010008E7010008E7010008D0
:10007000E7010008E7010008E7010008E7010008C0
:10008000E7010008E7010008E7010008E7010008B0
:10009000E7010008E7010008E7010008E7010008A0
:1000A000E7010008BD060008E7010008E7010008B5
:1000B000E1060008E7010008E7010008E701000881
:1000C000E7010008E7010008E7010008E701000870
:1000D000E7010008310800084D0800083109000850
:1000E000E7010008E7010008E7010008E701000850
:1000F000E7010008E7010008E7010008E701000840
:10010000E7010008E7010008E7010008E70100082F
:10011000D5070008FD070008E7010008E70100080F
:10012000E7010008E7010008E7010008E70100080F
:1001300000F002F800F03AF80AA090E8000C8244BF
:100140008344AAF10107DA4501D100F02FF8AFF29C
:10015000090EBAE80F0013F0010F18BFFB1A43F0A5
:1001600001031847F010000010110000103A24BFDE
:1001700078C878C1FAD8520724BF30C830C144BF0C
:1001800004680C607047000000230024002500264E
:10019000103A28BF78C1FBD8520728BF30C148BFEA
:1001A0000B6070471FB51FBD10B510BD00F033F8D0
:1001B0001146FFF7F7FF00F05FFC00F051F803B4C1
:1001C000FFF7F2FF03BC00F055FC00000948804730
:1001D00009480047FEE7FEE7FEE7FEE7FEE7FEE729
:1001E000FEE7FEE7FEE7FEE704480549054A064B41
:1001F000704700005D06000831010008A0050020DE
:10020000A00B0020A0070020A00700207047704727
:10021000704770477047754600F02CF8AE460500F1
:100220006946534620F00700854618B020B5FFF711
:10023000DBFFBDE820404FF000064FF000074FF015
:1002400000084FF0000B21F00701AC46ACE8C009F4
:10025000ACE8C009ACE8C009ACE8C0098D467047FD
:1002600010B50446AFF300802046BDE81040FFF70C
:10027000A6BF0000004870474005002000BFFEE711
:100280007047416170470161704700BFFEE70000A1
:1002900070B51A4C1A48007830B1012805D00228F0
:1002A00013D0032826D122E025E0204600F042F9B1
:1002B00000F028FB05462946204600F023F90220DD
:1002C0000F49087000F0EDF815E0204600F041F904
:1002D00038B900F017FB05462946204600F012F910
:1002E00002E003200649087000F0DBF803E000F0AC
:1002F000D8F800E000BF00BF70BD00000000002083
:100300001000002070B5134C1348007810B101287C
:100310001CD100E01BE0204600F012F938B920465D
:1003200000F0D7F885B2284600F0F2FA0BE004207E
:1003300000F030F8002008490870012007490870D3
:10034000002100F0ABFA00F08FF800E000BF00BF22
:1003500070BD0000000000201100002010000020EF
:1003600010B50B48007880B109480078022803D105
:10037000012000F00FF802E0002000F00BF8002050
:1003800003490870012100F089FA00F075F810BDEA
:10039000100000200149087070470000270000206D
:1003A0002DE9F04781460C4690460026002740463E
:1003B00000F08FF886B2304606EBD0714A103B460B
:1003C0007F1C24F81320002510E0404600F081F83F
:1003D0008246404600F07DF86AF31F2024F817009B
:1003E000781C87B2681C85B2681C85B2B542ECDB0C
:1003F0000120BDE8F0872DE9F047054689461646FD
:1004000005274FF0010802240BE0304600F061F8A8
:1004100035F81410884202D04FF0000803E0601C49
:1004200084B2BC42F1DB00BF4046BDE8F0872DE955
:10043000F04705468946164608274FF00108022472
:100440000BE0304600F045F835F81410884202D031
:100450004FF0000803E0601C84B2BC42F1DB00BF37
:100460004046BDE8F087000010B50248007800F073
:1004700043F910BD1800002010B500214FF0804056
:1004800000F0A5F90121880700F086F9002201217A
:10049000880700F093F900214FF0804000F082F9C6
:1004A00010BD10B50121880700F076F900214FF04A
:1004B000804000F08CF901221146900700F07EF98F
:1004C0000121880700F06EF910BD00BFFEE77047FC
:1004D000704710B503460024184600F031F870B993
:1004E0009968186830F811409868401C9860D3E902
:1004F0000110884201DB00209860204610BD4FF0BB
:10050000FF30FBE730B504460D46204600F021F8E9
:1005100070B9E168206820F81150E068401CE06084
:100520006168E068884201DB0020E060012030BDA6
:100530000020FCE7014600208860C8600120704769
:100540000146D1E90202904201D10120704700200A
:10055000FCE70146D1E90230C21A501C18B14868C4
:10056000401E904201D1012070470020FCE77047F7
:1005700010B500F001F810BD0CB5002001900090FE
:100580003348006840F480303149086000BF30488B
:10059000006800F4003000900198401C0190009821
:1005A00018B90198B0F5A06FF1D12948006800F49E
:1005B000003010B10120009001E000200090009870
:1005C000012843D12348006840F010002149086009
:1005D0000846006820F0030008600846006840F004
:1005E000020008601A484068194948600846406897
:1005F00048600846406840F48060486008464068AB
:1006000020F47C1048600846406840F4E8104860D8
:100610000846006840F08070086000BF0C48006821
:1006200000F000700028F9D00948406820F003006D
:10063000074948600846406840F00200486000BF33
:100640000348406800F00C000828F9D10CBD0000F8
:1006500000100240002002407047000010B513480F
:10066000006840F0010011490860084640681049E0
:1006700008400E494860084600680E4908400B498A
:1006800008600846006820F480200860084640683A
:1006900020F4FE0048604FF41F008860FFF768FFF9
:1006A0004FF000600449086010BD000000100240D7
:1006B0000000FFF8FFFFF6FE08ED00E010B5012195
:1006C000054800F06CF805480068401C03490860C4
:1006D00000F028F810BD0000002C01408C00002024
:1006E00010B50121880700F057F80121880700F0B4
:1006F00056F8FFF735FE10BD10B50246531ED8B2AE
:10070000074900280BDB122809D201EB00131B68F4
:1007100001EB00146360022301EB0014637310BD4E
:10072000F003002070B500241A4D00BF2FE005EB48
:100730000410407B022828D105EB0410416805EB2A
:1007400004104068401E05EB04125060E9B905EB47
:100750000410007B01280AD105EB0410006805EBAA
:100760000411486005EB0411886880470DE005EB33
:100770000410006805EB04114860012005EB04112A
:10078000487305EB041188688047601CC4B2122CC2
:10079000CDD370BDF0030020CA4302827047CA4324
:1007A0000282704721B1028842F00102028004E017
:1007B00002884FF6FE731A40028070471AB183898F
:1007C0000B43838102E083898B438381704781845B
:1007D0007047000010B540F22551074800F0F0F8CE
:1007E000012808D1044800F03AF9C4B240F225517A
:1007F000014800F0CDF810BD004C004010B540F2AB
:1008000025510A4800F0DCF8012808D140F22551B2
:10081000064800F0BDF8054800F021F9C4B240F2E6
:100820002551024800F0B4F810BD0000005000400F
:1008300010B540F22551044800F0C2F818B1024842
:1008400000F00DF9C4B210BD0038014010B540F2FF
:100850002551114800F0B4F858B140F225510E4826
:1008600000F09FF840F225510B4800F091F8FFF797
:100870000FFD40F22661084800F0A2F858B140F29E
:100880002661054800F08DF840F22661024800F02C
:100890007FF8FFF737FD10BD0044004070B50546F6
:1008A0000C4655B1012240F22551144800F0B2F82F
:1008B00080211348FFF7E7FC09E0002240F22551B0
:1008C0000E4800F0A7F880210D48FFF7DAFC54B17C
:1008D000012240F22661094800F09CF88021084876
:1008E000FFF7CFFC09E0002240F22661034800F048
:1008F00091F880210248FFF7C6FC70BD004400401B
:100900000014014001480088704700000444004082
:1009100010B5044680210448FFF7B3FC2146034884
:1009200000F0A2F810BD0000001401400044004097
:1009300010B540F22551134800F042F800B31148B9
:1009400000F08DF8C4B21048007810B9552C00D0D2
:1009500010BD0D4801780078401C0B4A10700B4800
:100960004454104600780B2805D1084800F086F85A
:1009700000200549087040F22551024800F008F8AF
:1009800000BFE5E700480040A80000203405002033
:1009900001F40072B2F5007F00D100BFCA430280AB
:1009A000704710B50022002340F66A14A14200D11E
:1009B00000BF0A1201249440A3B2DC43048010BD9E
:1009C00070B50246002400230025002040F66A1678
:1009D000B14200D100BFC1F3421501F01F0301264F
:1009E00006FA03F3012D02D19689334006E0022D69
:1009F00002D1168A334001E0968A33400C12012658
:100A000006FA04F41688344013B10CB1012000E05A
:100A1000002070BDF0B5034600240026002500200C
:100A200040F66A17B94200D100BF1846C1F342141C
:100A300001F01F06012707FA06F5012C01D10C3041
:100A400004E0022C01D1103000E014301AB1076824
:100A50002F43076002E00768AF430760F0BD01461F
:100A60008888C0F308007047C1F30802828070478D
:100A700000BFFEE700BF704700BFFEE72DE9FC475F
:100A800082469AF80000552801D0BDE8FC879AF804
:100A9000010051287DD19AF80200854908709AF822
:100AA000030084490870084600788149097840EAC3
:100AB000012000B2804908800846B0F9000000F02B
:100AC000ADFA00227D4BCDE9000100F04FF98046E0
:100AD00000227B4B00F0BAFA06467A4A7A4B00F0C5
:100AE000B5FA044600F010F9784908609AF8040055
:100AF000774908709AF8050076490870084600782A
:100B00007349097840EA012000B26B490880084621
:100B1000B0F9000000F082FA80460022674B00F036
:100B200025F90022664BCDE9000100F08FFA064658
:100B3000644A654B00F08AFA044600F0E5F8634920
:100B400048609AF80600644908709AF807006349FB
:100B50000870084600786049097840EA012000B230
:100B6000554908800846B0F9000000F057FA0646DB
:100B70000022524B00F0FAF880460022504B00F061
:100B800065FA04464F4A504B00F060FACDE9000187
:100B900000E017E000F0B8F84C4988609AF80910B6
:100BA0009AF8082041EA022108B200F037FA064616
:100BB00000224B4B00F0DAF8044600F0A5F8494952
:100BC000086072E09AF8010053286ED19AF802008A
:100BD000454908709AF803004449087008460078AF
:100BE0004149097840EA012000B2334908800846AB
:100BF000B0F9000000F012FA804600222F4B00F0FE
:100C0000B5F8064600223A4B00F020FA044600F000
:100C10007BF8384908609AF80400374908709AF858
:100C2000050036490870084600783349097840EADB
:100C3000012000B2204908800846B0F9000000F009
:100C4000EDF9804600221D4B00F090F80646002288
:100C5000274B00F0FBF9044600F056F825494860A0
:100C60009AF80600264908709AF807002549087086
:100C7000084600782249097840EA012000B20E496E
:100C800008800846B0F9000000F0C8F9804600224C
:100C90000A4B00F06BF806460022154B00F0D6F91F
:100CA000044600F031F81349886000BFEDE600000B
:100CB0009100002090000020A20000200000E040F1
:100CC000000030409A999999999923401005002085
:100CD0009300002092000020950000209400002046
:100CE00000005940A40000209D0000209C0000202E
:100CF00000806640280500209F0000209E00002004
:100D0000A1000020A000002021F00042A2F16052CA
:100D1000B2F5801F01F0004328BFD2F17F6C0BD9E0
:100D20005FEA001C43EAC20242EB507018BF7047F2
:100D300028BF20F001007047B2F5801FBCBF1846E5
:100D400070474FEA410C1CF5001F02D2084600F024
:100D50007BBA70B500F024FA00000089FFF7F6BFF7
:100D60004FF00040A0F58000704700002DE9C04121
:100D700030B4DFF8A0C23CEA111418BF3CEA1314E7
:100D800000F0EC8081EA03051CEA111444EAD574F2
:100D900018BF1CEA131500F0C780A4EB05044FF040
:100DA000004545EAC12145EAC32341EA505143EADF
:100DB000525304F17F74994204F500344FEAC02085
:100DC0004FEAC22208BF904200F09C804FEA1365B0
:100DD0000FF24016765D4FEA134506FB05F7C7F1A3
:100DE000807706FB07F74FEAD737A7FB0368764201
:100DF000C8F58038A7FB06CE38BFA8F1010807FB6D
:100E000008E64FF0000EA6FB028CE6FB03CEDCF1F9
:100E1000000CCEF1004E38BFAEF1010EA6FB0C580F
:100E20004FF000074FF00005E6FB0E87A1FB08C658
:100E3000A0FB07CE16EB0E0645F10005E1FB0765AA
:100E400015F1E04E7EBFA4F580345FEA46066D41A1
:100E500016F1800745F100054FEA17274FEA0666AD
:100E600047EA0567A6F1DE46B6F1805F4FEA152531
:100E70001FD9384624F0010C05EBC471BCF1FE6F9C
:100E800001EB0C1102D8F0BCBDE8008124425CBF2C
:100E900001F5801E9EEAC47F02D4F0BCBDE800814B
:100EA000244238D4F0BCA1F1C041BDE8004100F0BB
:100EB000C5B94FEAD22242EA43524FEAD323A7FBF5
:100EC00002864FEAD02040EA415007FB03661EEA43
:100ED0000E0F4FEAD12105FB026658BFA6EB005664
:100EE000B6EB00564FEA520E4EEAC37E18EB0E0EDA
:100EF00056EB530EBDD518EB02085E417F1C55F131
:100F00000005B6E74FF480154FF000074FF00006DC
:100F10004FF00008ADE7F0BC4FF0000001F1C04118
:100F200001F00041BDE8008111EA0C1F0CEA131525
:100F300000D00CE013EA0C1F00F025804FF00000F9
:100F4000F0BC81EA030101F00041BDE80081F0BC82
:100F5000BDE8004181EA030100F070B9F0BCBDE8D2
:100F6000004170B500F01CF9097EFC3E00F007B8A6
:100F700081EA03014FF0000001F00041704781EA6F
:100F8000030100F05BB9F0BCBDE800414FF0000088
:100F900021497047FFFDFBF9F7F5F4F2F0EEEDEBB8
:100FA000E9E8E6E4E3E1E0DEDDDBDAD8D7D5D4D367
:100FB000D1D0CFCDCCCBCAC8C7C6C5C4C2C1C0BFB3
:100FC000BEBDBCBBBAB9B8B7B6B5B4B3B2B1B0AFB9
:100FD000AEADACABAAA9A8A8A7A6A5A4A3A3A2A19D
:100FE000A09F9F9E9D9C9C9B9A9999989797969558
:100FF00095949393929191908F8F8E8E8D8C8C8BF4
:101000008B8A89898888878786858584848383827B
:10101000828181800000FF070000F87F10F000420D
:1010200048BF4042B0FA80F310FA03F10AD0C3F18E
:101030001D0303F580634FEA415002EB035202EBBC
:10104000D12170474FF0000070470000DFF848C121
:1010500070B51CEA111E1EBF1CEA13159EEA0C0F88
:1010600095EA0C0F00F06F8081EA030423EA4C1329
:101070004EEAD47E21EA4C1141F4801143F48013EE
:10108000AE44A1FB024CA0FB0365AEF17F7E361996
:1010900055EB0C05A1FB034C4CF10003A0FB021C1B
:1010A00016EB0C06654153F10003094218BF46F0E8
:1010B000010613F4007F0BD14FEA03314FEA0530EC
:1010C000340341EA155140EA16506FF003020AE07A
:1010D0004FEAC3214FEAC520F40241EA555140EAE4
:1010E00056506FF0020202EB2E4201EB025585EAE8
:1010F000CE710AD05FEA440C18BF24F0004450F1CE
:10110000000041F1000120EAD47040F2FE7C62450B
:1011100000D270BDA84214BF4FF080444FF040444D
:10112000002E08BF0024BEF1806FA8BFA1F1C0410E
:10113000BDE8704080F282804FF0000001F1C041B4
:1011400001F0004170479EEA0C0F0CEA131518BF1E
:1011500095EA0C0F06D04FF0000081EA030E0EF066
:10116000004170BD00F01CF88900013E00F007B896
:1011700000F009B84FEA430C5FEA5C5C08D081EAF2
:10118000030100F05BB84FEA410C5FEA5C5CF6D10A
:101190004FF00000014970470000FF070000F87F92
:1011A0000EF1020E2EF0030E5EF8046B364205D4EB
:1011B000012A43EB030515F5001F12D8012841EB66
:1011C000010C1CF5001F0CD80ED14FEAD17C15F58F
:1011D000001F0CEB4C0C0CF1020C08BF4CEBD37C49
:1011E00004E04FF0080C01E04FEAD37C0CEB4C0517
:1011F00026FA05F606F00706B6F1040C06D20EEB49
:10120000860CBDE870404CF0010C6047DFE80CF044
:10121000090B02024FF000414FF00000A1F5002140
:1012200070BD19461046012851EB010418BFD4F5D2
:10123000001484BF002001F0004170BD0808A0F533
:1012400000114FEA31017047FF2141EAD050C0053B
:10125000704700007412000800000020B000000079
:101260006C01000824130008B0000020F00A000000
:1012700088010008B000002000010000000000000C
:10128000000000000000000000000000000000005E
:1012900000000000000000000100000050030020DA
:1012A00024000020030000000000000000000000F7
:1012B0005003002024000020060000000000000071
:1012C0000000000050030020240000201000000057
:1012D000000000000000000000000000000000000E
:1012E00003000000A1030008060000002F0400080E
:1012F00010000000F70300080000000000000000DC
:1013000000000000000000000000000000000000DD
:1013100000000000000000000000000000000000CD
:0413200000000000C9
:04000005080001CD21
:00000001FF
